:020000040800F2
:1000000090050024AD02000805200008171D000817
:10001000B91E0008E1030008D52A0008000000000E
:100020000000000000000000000000003523000870
:10003000E303000800000000072000087523000803
:10004000C7020008C7020008C7020008C70200086C
:10005000C7020008C7020008C7020008C70200085C
:10006000C7020008C7020008C7020008C70200084C
:10007000C7020008C7020008C7020008C70200083C
:10008000C7020008C7020008C7020008C70200082C
:10009000C7020008C7020008C7020008C70200081C
:1000A000C7020008C7020008C7020008C70200080C
:1000B000C7020008C7020008C7020008C7020008FC
:1000C000C7020008C7020008C7020008C7020008EC
:1000D000C7020008C7020008C7020008C7020008DC
:1000E000C7020008C702000800000000C70200089D
:1000F000C7020008C7020008C7020008C7020008BC
:10010000C7020008C7020008C7020008C7020008AB
:10011000C7020008C7020008C7020008C70200089B
:10012000C7020008C7020008C7020008C70200088B
:10013000C7020008C7020008C7020008C70200087B
:1001400000000000000000000000000000000000AF
:10015000C7020008C7020008C7020008C70200085B
:10016000C7020008C7020008C7020008C70200084B
:10017000C7020008C7020008C7020008000000000C
:10018000C7020008C7020008C7020008C70200082B
:10019000C7020008C7020008C7020008C70200081B
:1001A000C7020008C7020008C7020008C70200080B
:1001B000C7020008C7020008C7020008C7020008FB
:1001C000C7020008C7020008C7020008C7020008EB
:1001D000C7020008C7020008C7020008C7020008DB
:1001E000C7020008C7020008C7020008C7020008CB
:1001F000C7020008C7020008C7020008C7020008BB
:10020000C7020008C7020008C7020008C7020008AA
:10021000C7020008C7020008C7020008C70200089A
:10022000C7020008C7020008C7020008000000005B
:10023000C7020008C702000800000000C70200084B
:10024000C7020008C7020008C7020008C70200086A
:10025000C7020008C7020008C7020008C70200085A
:10026000C7020008C7020008C7020008C70200084A
:10027000C7020008C7020008C7020008000000000B
:10028000C7020008C7020008C702000800000000FB
:1002900000000000C7020008DFF80CD000F08EF864
:1002A00000480047292B0008900500240648804795
:1002B00006480047FEE7FEE7FEE7FEE7FEE7FEE74B
:1002C000FEE7FEE7FEE7FEE7392400089902000892
:1002D0002DE9F05F0546002092469B46884606467B
:1002E000814640241BE0284641464746224600F00E
:1002F00054F853465A46C01A914110D31146184635
:10030000224600F03BF82D1A67EB01084F462246C3
:100310000120002100F032F817EB00094E41201EA9
:10032000A4F10104DFDC484631462A464346BDE8D5
:10033000F09FD2B201E000F8012B491EFBD27047BA
:100340000022F6E710B513460A4604461946FFF7A1
:10035000F0FF204610BD421E12F8013F002BFBD1DA
:1003600011F8013B02F8013B002BF9D17047421C08
:1003700010F8011B0029FBD1801A7047202A04DBEA
:10038000203A00FA02F1002070479140C2F12003A8
:1003900020FA03F3194390407047202A04DB203AE7
:1003A00021FA02F00021704721FA02F3D040C2F195
:1003B000200291400843194670470000064C074D43
:1003C00006E0E06840F0010394E807009847103425
:1003D000AC42F6D3FFF764FF882F0008A82F00086F
:1003E000FEE770477047000010B50E4C01204FF437
:1003F0007A714FF4FA62A04702204FF47A714FF4F9
:10040000FA62A04703204FF4FA614FF4FA62A04762
:1004100004204FF4FA614FF4FA622346BDE810401D
:10042000184700BFBD1E0008B0B5044600F0E6F84E
:1004300005469D480078611C18BF044400F0DEF8B2
:10044000401BA042FAD3B0BD2DE9F84F5B4A4FF0F4
:100450000A0A90425A4A024408BF4FF0090A4FEA7A
:10046000B2234FF00008092B38BF4FEAB22A4FF0F1
:10047000010B4FF0000C00220D6835FA02F600F077
:100480009B800BFA02F715EA070900F088804E6896
:10049000122E00F28A800BFA06F414F0061F00F008
:1004A0008480032303FA0CF48368CD68A34305FA20
:1004B0000CF56FEA040E2B438360C6F30013456806
:1004C0009340BD4357002B434360C3688C6803EAE5
:1004D0000E03BC402343C36046F01003122B11D11E
:1004E0006FF0030508F01C0305EA52050F240544CC
:1004F0009C402E6A26EA04040E6906FA03F323439D
:100500002B624E68036806F0030403EA0E03BC4046
:1005100023430360F30042D56C4B2B4E1C461B68F3
:1005200043F00203374623604FF0B04E23680F2498
:1005300003F00203009308F00C03009D9C4022F09E
:1005400003050AFA03F3AE5926EA04042343EB51E8
:100550001C4B1F46DB6F43EA09044D68EE0358BF8E
:1005600023EA0904FC67AE03D7F8803043EA0904A4
:1005700058BF23EA0904C7F88040DEF80030EE02D5
:1005800043EA090458BF23EA0904CEF800403B6857
:10059000AD0243EA090458BF23EA09043C6008F1AC
:1005A00004080CF1020C013266E70323674603FAE4
:1005B0000CF46FEA040E88E7BDE8F88F00240258B7
:1005C0000000FEA704000058080400580069084015
:1005D00018BF0120704742690A408A4208BF0904D7
:1005E00081617047002A08BF0904816170470000DB
:1005F00001480068000C70470010005C0548006866
:10060000704700BF2848034900780A681044086012
:10061000704700BF8C01002480B5032000F074F8FF
:1006200000F05EFF0E495A4B0A68C2F303229A5C3F
:10063000096801F00F01595C02F01F02D0401B4A0B
:1006400001F01F011060C84006490860002000F05A
:100650000BF808B1012080BD00F02AF8002080BD11
:10066000184402581000002470B50F4E044630782C
:10067000B0B14FF47A71B1FBF0F00C490968B1FBED
:10068000F0F001F0EDF901250F2C0AD848B94FF030
:10069000FF3021460022002500F01AF8746000E0C7
:1006A0000125284670BD00BF040000240C00002472
:1006B00081B00648016841F002010160006800F065
:1006C00002000090009801B0704700BFF444025847
:1006D000B0B5134B4FF0FF351B68C3F30223DC1E8C
:1006E00083F0070338BF0024042B28BF042305FA36
:1006F00003F3994305FA04F3A1409A431143BDE87B
:10070000B04002F0E9B900BF05494FF6FF030A689F
:100710001A4060F30A22034810430860704700BF84
:100720000CED00E00000FA05B0B5104D2A6829680C
:10073000520705D401F00701081A18BF0120B0BD07
:1007400021F0070108432860FFF758FF044655F8D9
:10075000080C800407D4FFF751FF001BB0F57A7F27
:10076000F5D90120B0BD0020B0BD00BF0C48025833
:1007700080B500F077FE0549054A0968C1F302110A
:10078000515C01F01F01C84080BD00BF20440258E9
:10079000502F0008B0B53B498B6A8A6ACC6AC4F313
:1007A0000014CD6BC5F3CC056C4300EE104AB8EED7
:1007B000400AC2F3053252B103F00303022B0AD000
:1007C00063B90B689B060CD49FED311A13E000212E
:1007D000C0E9001153E09FED2D1A0CE09FED2A1A9D
:1007E00009E00B682B4CC3F3C10324FA03F301EEB9
:1007F000103AB8EE411A8B6B6FF35F2302EE103A9A
:100800009FED253AB8EE422A00EE032AB7EE000A21
:1008100003EE102AB8EE433A8A6B32EE002AC2F396
:10082000462281EE031A21EE021A02EE102AB8EED9
:10083000422A32EE002A81EE022ABCEEC22A80ED64
:10084000002A8A6BC2F3064202EE102AB8EE422A50
:1008500032EE002A81EE022ABCEEC22A80ED012A85
:10086000896BC1F3066102EE101AB8EE422A32EE2D
:10087000000A81EE000ABCEEC00A10EE101A816078
:10088000B0BD00BF004402580024744A20BCBE4BD7
:100890000024744C0090D00300000039B0B53B49EF
:1008A0008B6A8A6ACC6AC4F300244D6CC5F3CC050C
:1008B0006C4300EE104AB8EE400AC2F3055252B142
:1008C00003F00303022B0AD063B90B689B060CD418
:1008D0009FED311A13E00021C0E9001153E09FEDB4
:1008E0002D1A0CE09FED2A1A09E00B682B4CC3F37C
:1008F000C10324FA03F301EE103AB8EE411A0B6C6F
:100900006FF35F2302EE103A9FED253AB8EE422ACC
:1009100000EE032AB7EE000A03EE102AB8EE433ABF
:100920000A6C32EE002AC2F3462281EE031A21EE4F
:10093000021A02EE102AB8EE422A32EE002A81EEA6
:10094000022ABCEEC22A80ED002A0A6CC2F30642DB
:1009500002EE102AB8EE422A32EE002A81EE022A76
:10096000BCEEC22A80ED012A096CC1F3066102EED9
:10097000101AB8EE422A32EE000A81EE000ABCEEEE
:10098000C00A10EE101A8160B0BD00BF00440258CA
:100990000024744A20BCBE4B0024744C0090D00349
:1009A000000000392DE9F0470446C078A94F000740
:1009B00021D5606E4FEA3051032908D8DFE801F0F5
:1009C00002090E16F96941F40031F9610EE00126C1
:1009D00012E0201D022101F017FB04E004F12400C5
:1009E000022101F08DFB064630B9606E396C21F4AE
:1009F00040110843386400266078BA46C00701D128
:100A0000354628E0606D04280BD83546DFE800F055
:100A1000030C11171700F869354640F40030F861EF
:100A20000DE00125012717E0201D002101F0ECFA5F
:100A300004E004F12400002101F062FB05462F468A
:100A400055B9606DDAF8401021F007010025084320
:100A50005246CAF840003746607880072BD5A06D13
:100A60004FEAB01004280CD8DFE800F0030E131989
:100A70001900DAF81C00514640F40030CAF81C0096
:100A80000DE00125012617E0201D002101F0BCFA30
:100A900004E004F12400002101F032FB05462E465B
:100AA00055B9A06DDAF8401021F4E0710025084333
:100AB0005246CAF840003E466078400702D4B0462D
:100AC00057462AE0D4F8A40057464FEA705004284D
:100AD00009D8DFE800F0030C11171700F86940F49B
:100AE0000030F8610EE001254FF0010815E0201DEF
:100AF000002101F089FA04E004F12400002101F052
:100B0000FFFA0546A84645B9D4F8A400B96C21F40B
:100B1000600100250843B046B864607800072AD514
:100B2000D4F8A8004FEA3060042809D8DFE800F0C4
:100B3000030B10161600F86940F40030F8610DE060
:100B40000125012718E0201D002101F05DFA04E0D5
:100B500004F12400002101F0D3FA05462F465DB9C7
:100B6000D4F8A800DAF8481021F0E0610025084325
:100B70005246CAF848004746E078800724D5A06C62
:100B80004FEA301003280BD8DFE800F012020D12F4
:100B9000DAF81C00514640F40030CAF81C0007E0A7
:100BA0000125012611E0201D022101F02DFA054644
:100BB0002E4655B9A06CDAF83C1021F03001002522
:100BC00008435246CAF83C003E466078C0062BD522
:100BD000E06D4FEA303004280CD8DFE800F0030E57
:100BE00013191900DAF81C00514640F40030CAF815
:100BF0001C000DE00125012717E0201D002101F058
:100C000003FA04E004F12400002101F079FA05461A
:100C10002F4655B9E06DDAF8401021F4E041002587
:100C200008435246CAF8400037466078800625D50A
:100C3000206E4FEA3040052809D8DFE800F01303A2
:100C40000D131313201D012101F0DEF909E0012528
:100C5000012614E01044025804F12400012101F09F
:100C60004FFA05462E4655B9206EDAF8401021F4A9
:100C7000E021002508435246CAF840003E4660780D
:100C8000400625D5D4F8AC004FEA3070052809D8C5
:100C9000DFE800F011030B111111201D012101F0FB
:100CA000B3F907E00125012713E004F12400012135
:100CB00001F026FA05462F465DB9D4F8AC00DAF803
:100CC000481021F0E041002508435246CAF8480088
:100CD00037466078000620D5E06E90B1B0F1005F35
:100CE0000AD0B0F1805F2CD1DAF81C00514640F4F4
:100CF0000030CAF81C0004E0201D012101F084F935
:100D000005462E4655B9E06EDAF8401021F0405104
:100D1000002508435246CAF840003E46E078C00726
:100D200002D1B046574622E0606C574603280BD8E4
:100D3000DFE800F013020E13F86940F40030F861A8
:100D40000BE001250126E9E701254FF001080EE03F
:100D5000201D022101F058F90546A8463DB9606CF6
:100D6000F96B21F0030100250843B046F863A07831
:100D7000400601D4474616E0D7F8F00340F48070EF
:100D8000C7F8F003FFF73AFC0646D7F8F003C005B2
:100D900007D4FFF733FC801B6428F6D9032503270B
:100DA00001E02F468DB12078C0074ED0A06F4FEAEA
:100DB000F000052834D8DFE800F03C03363C3C3C2A
:100DC000201D012101F020F932E0DAF86010D4F89A
:100DD000B0004140534611F4407F0BD0196E1A6E9B
:100DE00042F4803221F440711A661A6E22F4803285
:100DF0001A661966B0F5807F40F01182FFF7FEFB9E
:100E0000064641F2883903250327DAF86000800797
:100E100000F10282FFF7F2FB801B4845F5D9C2E7DB
:100E20000125012612E004F12400012101F068F9F6
:100E300005462E4655B9A06FDAF8441021F0380166
:100E4000002508435246CAF844003E4620788007F1
:100E500021D5606F052809D8DFE800F011030B11D8
:100E60001111201D012101F0CFF807E00125012714
:100E700012E004F12400012101F042F905462F4659
:100E800055B9606FDAF8441021F0070100250843D6
:100E90005246CAF8440037462078400723D5D4F894
:100EA0009000052809D8DFE800F011030B1111119B
:100EB000201D012101F0A8F807E00125012613E01B
:100EC00004F12400012101F01BF905462E465DB90D
:100ED000D4F89000DAF8481021F007010025084303
:100EE0005246CAF848003E462078800625D5D4F8F8
:100EF0008C004FEA3070052809D8DFE800F01103B4
:100F00000B111111201D002101F07EF807E00125D1
:100F1000012713E004F12400022101F0F1F8054655
:100F20002F465DB9D4F88C00DAF8441021F0E04186
:100F3000002508435246CAF8440037462078400648
:100F400025D5D4F898004FEAB020052809D8DFE865
:100F500000F011030B111111201D002101F054F8B4
:100F600007E00125012613E004F12400022101F02D
:100F7000C7F805462E465DB9D4F89800DAF848104F
:100F800021F4E051002508435246CAF848003E4685
:100F90002078000625D5D4F89C004FEA703005284B
:100FA00009D8DFE800F011030B111111201D0021F9
:100FB00001F02AF807E00125012713E004F12400DD
:100FC000022101F09DF805462F465DB9D4F89C003A
:100FD000DAF8481021F46041002508435246CAF867
:100FE000480037462068010717D5D4F88010B1F5BE
:100FF000805F0AD104F12400022101F081F8002869
:1010000018BF01272068D4F88010DAF8442053462E
:1010100022F440521143CAF84410C10617D5D4F83F
:101020009410B1F5807F0AD104F12400022101F06F
:1010300067F8002818BF01272068D4F89410DAF860
:101040004820534622F440721143CAF84810000366
:1010500020D5D4F8A000B0F5003F0ED0B0F5803F09
:1010600005D078BB201D002100F0CEFF04E004F184
:101070002400022101F044F805462E465DB9D4F85B
:10108000A000DAF8481021F4403100250843524608
:10109000CAF848003E46A078400729D5D4F8840015
:1010A000B0F5401F17D0B0F5001F0ED0B0F5801F6F
:1010B00040F0AD80DAF81C00514640F40030CAF828
:1010C0001C0008E001250126E5E704F124000121C8
:1010D00001F016F805462F465DB9D4F88400DAF819
:1010E000441021F44011002508435246CAF8440038
:1010F0003746A078C00701D13E4620E0E06CB0F54D
:10110000803F08D0C8B9DAF81C00514640F40030DE
:10111000CAF81C0004E0201D022100F075FF0546FE
:101120002E4665B9E06CDAF83C1021F480310025D8
:1011300008435246CAF83C00DEE701250126206834
:10114000810008D504F12400022100F0D9FF002815
:1011500018BF01262068810319D5E16F6FF00102E5
:1011600002EB3122022A0AD34FEA31223AB1012A94
:1011700050D1DAF81C2042F40032CAF81C203DB9E4
:10118000DAF8442022F440721143CAF8441035467C
:10119000C10207D5216FDAF8402022F00042114346
:1011A000CAF84010C10008D5D4F8B410DAF800200D
:1011B00022F480421143CAF80010810207D5A16EC3
:1011C000DAF8402022F080721143CAF84010410042
:1011D0000CD5DAF8001021F40041CAF80010D4F858
:1011E000B810DAF800201143CAF80010B0F1FF3F40
:1011F00007DC206DDAF83C1021F040510843CAF8B2
:101200003C00002D18BF01252846BDE8F0870125C8
:1012100001276EE70125BBE75346D4F8B0001968F3
:1012200000F4407221F47C51B2F5407F03D1064AAC
:1012300002EA1012114319606FF31F30196E002576
:101240000843186696E500BFCFFFFF002DE9F8437D
:10125000002800F00081814D04462868884600F08F
:101260000F0088420BD2286820F00F0040EA0800E7
:101270002860286800F00F00404540F0EC802068AE
:10128000CC4F41070AD52169BA6902F07002914238
:1012900004D9BA6922F070021143B96101070AD575
:1012A0006169FA6902F07002914204D9FA6922F088
:1012B00070021143F961C1060AD5A169FA6902F405
:1012C000E062914204D9FA6922F4E0621143F961C3
:1012D00081060AD5E1693A6A02F07002914204D9A6
:1012E0003A6A22F070021143396210F002010AD00A
:1012F000E268BB6903F00F039A4204D9BB6923F08B
:101300000F031A43BA61C2073AD0D4E90101BA699E
:1013100022F47062032841EA0201B96105D0022873
:1013200007D1396889030DD495E03968890109D45A
:1013300091E03968012802D1C90503D48BE049073F
:1013400040F189803969A94621F0070108433861D5
:10135000FFF754F9064641F288356068396901F0B3
:101360003801B1EBC00F07D0FFF748F9801BA84246
:10137000F3D90320BDE8F88320684D4600F0020150
:1013800051B1E168BA6902F00F02914204D2BA6920
:1013900022F00F021143B961296801F00F014145A4
:1013A0000AD9296821F00F0141EA0801296029685A
:1013B00001F00F0141454ED141070AD52169BA69B3
:1013C00002F07002914204D2BA6922F07002114315
:1013D000B96101070AD56169FA6902F070029142A8
:1013E00004D2FA6922F070021143F961C1060AD5EC
:1013F000A169FA6902F4E062914204D2FA6922F426
:10140000E0621143F96180060AD5E069396A01F0AA
:101410007001884204D2396A21F0700108433862B1
:1014200000F05EF8B9692D4AC1F303211A4B515CF3
:1014300001F01F01C840B96901F00F011860515C4B
:1014400001F01F01C8401549086005480068BDE863
:10145000F843FFF709B90120BDE8F88300200052E6
:101460000800002480B500F03BF80A491B4B0A68CD
:10147000C2F303229A5C096801F00F01595C02F083
:101480001F02D040044A01F01F011060C840034908
:10149000086080BD184402580C000024100000248D
:1014A00080B5FFF7DFFF0C490C4A0968C1F3021150
:1014B000515C01F01F01C84080BD00BF80B5FFF73F
:1014C000D1FF0549054A0968C1F30221515C01F0C9
:1014D0001F01C84080BD00BF1C440258502F0008A7
:1014E00010B534490869C0F3C20003280BD00228A4
:1014F00024D028BB0868800634485AD50968C1F34F
:10150000C101C84010BD8A6A886ACB6A4C6B03F07F
:101510000103C4F3CC04634300EE103AB8EE400A72
:10152000C0F3051070B102F00302022A0CD072B9A8
:101530000A6892060ED49FED241A15E01F4810BDCC
:101540001D4810BD002010BD9FED1E1A0CE09FED40
:101550001C1A09E00A681D4BC2F3C10223FA02F209
:1015600001EE102AB8EE411A0A6B6FF35F2202EE09
:10157000102A9FED173AB8EE422A00EE032AB7EE82
:10158000000A32EE000A02EE100AB8EE422A086B98
:10159000C0F3462081EE021A013021EE000A01EE6E
:1015A000100AB8EE411A80EE010ABCEEC00A10EE35
:1015B000100A10BD0044025800093D0040787D012A
:1015C0000024744A20BCBE4B0024744C0090D0030D
:1015D00000000039F8B5002800F06F81044600785B
:1015E000C84EC00749D0306900F03801B06A1029F0
:1015F00005D0182909D100F00300022805D1306870
:1016000080033AD56068C0BB57E1606868B1B0F547
:10161000803F06D03168B0F5A02F1BD141F4802067
:101620003060306840F480301AE0306820F4803058
:101630003060306820F480203060FEF7DFFF054620
:101640003068800319D5FEF7D9FF411B03206429B8
:10165000F6D904E221F480303060306820F4802034
:101660003060FEF7CBFF05463068800305D4FEF7F7
:10167000C5FF401B6428F7D933E1207880074CD59B
:10168000306910F03801B06A17D0182908BF5FEA36
:10169000807012D03068E16861B320F0190008430F
:1016A0003060FEF7ABFF0546306840070CD4FEF70C
:1016B000A5FF401B0228F7D913E13068400703D586
:1016C000E068002800F0F980FEF792FF41F2030184
:1016D000884208D82069716821F47C31402819D1EA
:1016E00041F4003018E02069716821F0FE4141EAC0
:1016F000006011E020F001003060FEF77FFF05463A
:101700003068400709D5FEF779FF411B0320022905
:10171000F6D9A4E141EA003070602078C0064FD5C8
:10172000306900F03801B06A082905D018290BD1BA
:1017300000F00300012807D13068C00516D5E06924
:10174000802840F0BA8011E03068E16929B340F0A8
:1017500080003060FEF752FF05463068C00505D4B2
:10176000FEF74CFF401B0228F7D9BAE0FEF740FF16
:1017700041F20301884208D8206A716821F0F841DB
:1017800020281AD141F0804019E0206AF16821F048
:101790007C5141EA0060F06012E020F0800030608F
:1017A000FEF72CFF05463068C00509D5FEF726FF79
:1017B000411B03200229F6D951E141EA80607060A3
:1017C0002078000720D5706F616971B140F0010089
:1017D0007067FEF713FF0546706F800714D4FEF79D
:1017E0000DFF401B0228F7D97BE020F00100706755
:1017F000FEF704FF0546706F800705D5FEF7FEFE75
:10180000401B0228F7D96CE02078800621D530688B
:10181000A16971B140F480503060FEF7EFFE0546DB
:101820003068800415D4FEF7E9FE401B0228F7D982
:1018300057E020F480503060FEF7E0FE0546306847
:10184000800406D5FEF7DAFE411B03200229F6D9F3
:1018500005E12078400732D4676A002F00F0E78066
:10186000306900F0380018284ED1B16A306B012F72
:1018700023D0A26A01F0030393421ED1E26AC1F3AE
:101880000511914219D10146226B6FF35F21013A94
:10189000914212D1C0F34621626B013A91420CD1C0
:1018A000C0F30641A26B013A914206D1C0F3066033
:1018B000E16B0139884200F0BA800120F8BDD6F80A
:1018C000000440F48070C6F80004FEF797FE054659
:1018D000D6F80004C00506D4FEF790FE401B64282D
:1018E000F6D90320F8BDA06858B3012806D0316F9F
:1018F000052840F09E8041F004003067306F40F0D2
:1019000001009CE000440258306820F08070306094
:10191000FEF774FE0546022F09D13068800128D5F4
:10192000FEF76CFE411B03200229F6D997E03068D0
:1019300080017CD5FEF762FE411B03200229F6D907
:101940008DE0306F20F001003067306F20F0040030
:101950003067FEF753FE054641F28837306F800747
:101960007FF57AAFFEF74AFE411B0320B942F5D955
:1019700075E0B06A40F2F33104F1280588432ECDBA
:101980000843591E40EA02106FF35F21B0624FF422
:101990007E4000EB45204FF4FE0280B20844A16B6C
:1019A00002EB01414FF0FE4201F4FE010844E16BFD
:1019B00002EB016101F0FE4108444FF6F87130631B
:1019C000F06A20F00100F062706B8843A16C40EA7D
:1019D000C1007063206CF16A21F00C010843F062D1
:1019E000F06A616C20F002000843F062F06A40F493
:1019F0008030F062F06A40F40030F062F06A40F447
:101A00008020F062F06A40F00100F062306840F03F
:101A100080703060FEF7F2FD04463068800106D425
:101A2000FEF7ECFD011B03200229F6D917E0002088
:101A3000F8BD21F001003067306F20F004003067FE
:101A4000FEF7DCFD054641F28837306F80073FF531
:101A500003AFFEF7D3FD411B0320B942F5D9F8BD12
:101A6000411E0020B0EB116F01D001207047044AE5
:101A7000F023516003490B7007219060116070479B
:101A800010E000E023ED00E090F87C10012901D186
:101A9000022112E02421C0F8801001680A680B6856
:101AA00023F0010322F000520B600A600021202283
:101AB000416680F87C10C0F8802008467047B0B5B9
:101AC000044690F87C00012801D10220B0BD2420FA
:101AD000C4F8800020680568026822F001020260F4
:101AE000012284F87C20826822F0606211438160C8
:101AF000204600F037FD206820210560002084F892
:101B00007C00C4F88010B0BDB0B5044690F87C00ED
:101B1000012801D10220B0BD2420C4F88000206833
:101B20000568026822F001020260012284F87C202C
:101B3000826822F0604211438160204600F012FD6D
:101B4000206820210560002084F87C00C4F8801003
:101B5000B0BD10B5B0B10446D0F8800028B900205F
:101B600084F87C00204600F027F82420C4F8800088
:101B70002068016821F001010160204600F09AFD13
:101B8000012801D1012010BDA06A10B1204600F04B
:101B90000BFD2068416821F490414160816821F08B
:101BA0002A018160016841F0010101602046BDE821
:101BB000104000F04EBD000010B586B0044601A8EC
:101BC0001421FEF7BDFB2068BA49884217D09F490F
:101BD000884234D18248016941F0100101610169F4
:101BE00001F0100100910099016841F001010160CC
:101BF000006800F0010000904FF4C06012E07848E7
:101C0000816841F400318160816801F40031009104
:101C10000099016841F001010160006800F00100D5
:101C200000900C20019001A9009807200590002049
:101C3000CDE90300022002900248FEF705FC06B041
:101C400010BD00BF000002582DE9FC470446D0F843
:101C5000800020280AD10D460120002959D01646BF
:101C6000002A56D094F87C00012802D10220BDE859
:101C7000FC874FF0000A0120C4F888A0994684F838
:101C80007C002120C4F88000FEF7B8FCA4F8566060
:101C90008046A4F85460A068B0F5805F06D127693B
:101CA0000026002F0CBF2E462F4601E02F460026AF
:101CB00084F87CA0B4F85600D8B1204680210022D8
:101CC0004346CDF8009000F0B5FED8B927B117F81B
:101CD000010B2168886206E036F8021B20680027A5
:101CE0006FF35F218162B4F856000138A4F8560002
:101CF000E0E72046402100224346CDF8009000F066
:101D000099FE10B10320BDE8FC872020C4F88000B4
:101D10000020BDE8FC87FEE72DE9F04186B04FF0DA
:101D200000082F48CDF81480B54C0168002241F01E
:101D3000800103250160016801F080010091009994
:101D4000016841F001010160016801F001010091A9
:101D50000099016841F002010160016801F002018F
:101D600000910099016841F008010160016801F0EB
:101D7000080100910099016841F00401016003210C
:101D8000006800F00400009000982046FEF72AFC4E
:101D90000120144FCDE90388CDE9015001AD204663
:101DA0002946B84702264FF40040CDE9028601904B
:101DB00020462946B8474FF4C0502946CDE902864F
:101DC000019004F50060B8474FF420702946CDE932
:101DD0000286019004F58060B84706B0BDE8F08146
:101DE000E04402584904000810B5174C0C200021AB
:101DF0004FF4E132154BC4E90032C4E90211C4E9E1
:101E0000041004F118001421FEF79AFA2046FFF797
:101E1000A0FE08B1FEF7E6FA0B480021FFF774FEBA
:101E200008B1FEF7DFFA08480021FFF748FE08B1C5
:101E3000FEF7D8FA0448FFF727FE18B1BDE81040B6
:101E4000FEF7D0BA10BD00BF74000024001001409E
:101E500010B5174C0C2000214FF4E132154BC4E9AA
:101E60000032C4E90211C4E9041004F1180014217D
:101E7000FEF766FA2046FFF76CFE08B1FEF7B2FAED
:101E80000B480021FFF740FE08B1FEF7ABFA084807
:101E90000021FFF714FE08B1FEF7A4FA0448FFF78B
:101EA000F3FD18B1BDE81040FEF79CBA10BD00BFAD
:101EB0000001002400440040FEE700002DE9F0414D
:101EC00096B0074600200DF102060D46ADF854000D
:101ED0003121CDE91300ADF848009046CDE910005E
:101EE000ADF83C00CDE90D00701CFEF729FA232067
:101EF00013AC8DF80200384621460A2200F070FF2C
:101F00002046FEF734FA02280BD001280ED13046C5
:101F1000FEF72DFA43F23001315230440021817036
:101F200004E03046FEF723FA302131520DF102066B
:101F300013A93046FEF70FFA10AC284621460A22B4
:101F400000F04EFF2046FEF712FA04280BD00328BB
:101F50000ED13046FEF70BFA43F2500131523044B5
:101F60000021817004E03046FEF701FA5021315221
:101F70000DF1020510A92846FEF7EDF90DAC40461B
:101F800021460A2200F02CFF2046FEF7F0F9042833
:101F900009D003280DD0022814D12846FEF7E7F90E
:101FA000144929500EE02846FEF7E1F95421295240
:101FB00008E02846FEF7DBF943F254012952284491
:101FC000002181700DA92846FEF7C5F9FEF7CFF96B
:101FD000094929502846322100F0ACFA07A02946C9
:101FE00000F02CFF06480221FEF7F5FA16B0BDE816
:101FF000F08100BF54303000210D0A00257300002D
:1020000000040258FEE77047F8B57B4F0546B86AF2
:1020100000F00300032801D10120F8BD38680C4608
:1020200020F080603860FEF7E9FA06463868000163
:1020300005D5FEF7E3FA801B0228F7D95CE095E8A6
:102040000F00BE6A013926F47C366FF35F2146EA41
:102050000030B8624FF47E4000EB42204FF0FE4269
:1020600080B208444FF4FE0101EB034101F4FE018C
:102070000844296902EB016101F0FE410844B8639C
:102080006869F96A21F0C00140EA0100F862A869B4
:10209000F96A21F0200140EA01004FF6F871F86278
:1020A000F86A20F01000F862F86B20EA0100E96994
:1020B00040EAC100F863F86A40F01000F8622CB101
:1020C000F86A012C06D140F4801005E0F86A40F46B
:1020D000002001E040F40010F862386840F08060B1
:1020E0003860FEF78BFA04463868000106D4FEF724
:1020F00085FA001B0328F7D30320F8BD0020F8BDA4
:10210000F8B5F44F0546B86A00F00300032801D182
:102110000120F8BD38680C4620F080503860FEF78A
:102120006DFA06463868800005D5FEF767FA801B11
:102130000228F7D95CE095E80F00BE6A013926F065
:102140007C766FF35F2146EA0050B8624FF47E4020
:1021500000EB42204FF0FE4280B208444FF4FE01F3
:1021600001EB034101F4FE010844296902EB01611E
:1021700001F0FE41084438646869F96A21F440615D
:1021800040EA0100F862A869F96A21F4007140EAA6
:1021900001004FF6F871F862F86A20F48070F86276
:1021A000786C20EA0100E96940EAC1007864F86AC5
:1021B00040F48070F8622CB1F86A012C06D140F42A
:1021C000000005E0F86A40F4800001E040F0807013
:1021D000F862386840F080503860FEF70FFA044625
:1021E0003868800006D4FEF709FA001B0328F7D3ED
:1021F0000320F8BD0020F8BD0044025870B54C48DB
:10220000C16A21B14FF4FA644FF475750EE0416A6A
:1022100021B14FF40C754FF40C7407E0806A40F262
:102220001225002808BF4FF4FA752C46C04E012035
:1022300029464FF4FA62B047022029464FF4FA6269
:10224000B047032021464FF4FA62B04704202146EC
:102250004FF4FA623346BDE87040184710B5344871
:10226000416CB1B1B24C01204FF47A714FF47A72E3
:10227000A04702204FF47A714FF47A72A0470320EE
:1022800040F2E4714FF47A72A047042040F2E47106
:1022900017E0C16BD9B1A64C012040F26C714FF42C
:1022A0007A72A047022040F26C714FF47A72A04714
:1022B000032040F26C714FF47A72A047042040F280
:1022C0006C714FF47A722346BDE810401847006CD9
:1022D000974CA8B1012040F698014FF4FA62A0474C
:1022E000022040F698014FF4FA62A047032040F61E
:1022F00098014FF4FA62A047042040F6980114E0D8
:1023000001204FF416614FF4FA62A04702204FF407
:1023100016614FF4FA62A04703204FF416614FF4A0
:10232000FA62A04704204FF416614FF4FA62CAE73C
:10233000180000247047000010B57D4C01204FF4B8
:1023400048714FF4FA62A04702204FF448714FF4ED
:10235000FA62A04703204FF4FA614FF4FA62A047F3
:1023600004204FF4FA614FF4FA622346BDE81040AE
:10237000184700BFFEF746B9B0B5CCB039A84C211C
:10238000FDF7DEFF31A82021FDF7DAFF02A8BC210E
:10239000FDF7D6FF0220FEF7C7F9002001220190C9
:1023A0002348016821F001010160006800F001008C
:1023B00001902048016862F38F310160016801F4E7
:1023C00040410191019901688904FCD54FF44060B6
:1023D0000C214B9002204A900024CDE948010921AC
:1023E0004025CDE946004591042144910121CDE9E4
:1023F00042043D953C91399039A8FFF7EBF84FF432
:102400008060389537903F20CDE93555032501216F
:10241000CDE933443295319031A8FEF717FF02A879
:10242000CDE91F440295FEF7BDFA4CB0B0BD00BF28
:102430002C04005818480258B0B52448244BD0F852
:10244000801041F47001C0F88010196801F00F018C
:10245000062904D81968072262F3030119601D498F
:102460001D4D0A6842F001020A6000220A610C68F0
:102470002C400C601C68240704D51C68072565F3F4
:1024800003041C60154B8A61CA610A628B62144B9B
:10249000CB62144B0B634A638B63CA630B644A645D
:1024A0000B6823F480230B600A660F490968B2EBBE
:1024B000517F02D10D4901220A600D4943F2D20237
:1024C0000A604FF000610160B0BD00BF08ED00E0A0
:1024D00000200052004402587FEDF6EA000202029A
:1024E0000000FF01800201010010005C0881005122
:1024F0000040005210B50E4C012040F634014FF45C
:10250000FA62A047022040F634014FF4FA62A04775
:1025100003204FF461714FF4FA62A04704204FF496
:1025200061714FF4FA622346BDE81040184700BFBE
:10253000BD1E0008F8B50C4605460027084EA74208
:102540000CD0E919304601224FF47A73FFF77CFB77
:102550003068C1690906FCD50137F0E7F8BD00BF56
:1025600000010024B0B5416E91B102680C4B916836
:102570000C4DC1F342615C5C695C9268520F0901C9
:102580009B5CAA5CB1FBF4F11201B2FBF3F201E037
:1025900001220121A0F86810A0F86A20B0BD00BF98
:1025A000802F0008782F000810B5816ACA0706D06E
:1025B0000268C36A546824F40034234353608A07D2
:1025C00006D50268036B546824F4803423435360B7
:1025D0004A0706D50268436B546824F480242343D9
:1025E00053600A0706D50268836B546824F40044DC
:1025F00023435360CA0606D50268C36B946824F46B
:102600008054234393608A0606D50268036C94685D
:1026100024F40054234393604A0610D50268436CA7
:102620005468B3F5801F24F4801444EA0304546012
:1026300005D1836C546824F4C00423435360090615
:1026400006D50168C06C4A6822F400221043486035
:1026500010BDBCB504460020C4F88800FDF7CEFFCD
:1026600005462068016809070BD56FF07E404FF4DE
:1026700000110090204600222B4600F0DBF970B9D3
:102680002068006840070CD56FF07E404FF4800151
:102690000090204600222B4600F0CCF908B1032020
:1026A000BCBD20210020C4F8801084F87C00C4F850
:1026B0008410BCBDFEB504460168D4E903238068DC
:1026C0000D689F4E18432E4065692843E5692843ED
:1026D000636E18439B4B30439B4E0860B142486881
:1026E00020F4405040EA02004860A0691CBF226A02
:1026F00010438A681A40954B10438860626AC86A22
:1027000020F00F001043C8629148814228D09148C0
:10271000814232D0904881423CD09048814246D09C
:102720008F48814200F050808E48814200F05880EE
:10273000B14200F061808C48814200F069808B4892
:10274000814240F07B80586D9C46C0F3C200052852
:1027500000F275800127DFE800F07367696B6D6F29
:10276000586D9C4600F00700052800F2688000279D
:10277000DFE800F0665A5C5E6062586D9C4600F0CF
:102780000700052800F25B800027DFE800F0594DC4
:102790004F515355586D9C4600F00700052800F234
:1027A0004E800027DFE800F04C4042444648586D18
:1027B0009C4600F00700052800F241800027DFE872
:1027C00000F03F333537393B586D9C4600F0070029
:1027D000052834D80027DFE800F03327292B2D2FD8
:1027E000586D9C4600F00700052828D80027DFE830
:1027F00000F0271B1D1F2123986D9C4600F0070049
:1028000005281CD80227DFE800F01B0F111315174D
:10281000586D9C46C0F3C200052810D80127DFE898
:1028200000F00F030507090B042709E0082707E05C
:10283000102705E0202703E0402701E09C46802781
:102840007848B1420FD00121B5F5004F1BD1082FB8
:1028500025D8DFE807F00572C9C98DC9C9C991003B
:10286000FEF71EFE8CE0402F30D0042F31D0082F11
:1028700033D0102F39D0202F41D0022F40F0B38019
:10288000FDF776FF2DE0082F14D8DFE807F0058E5E
:10289000ADAD91ADADAD9500FEF702FE90E0102F0D
:1028A00000F0AA80202F6DD0402F40F09D804FF483
:1028B000004067E0102F00F0AA80202F00F08280F7
:1028C000402F40F091804FF400407BE04FF40040F7
:1028D00015E06846FDF75EFF02E06846FDF7DEFFA3
:1028E000019800287DD0626A09E0DCF800008006CB
:1028F0004D4804D5DCF80010C1F3C101C8404B4974
:1029000031F81210626802EB4203B0FBF1F00121D2
:10291000984269D31303984266D8010E000210EB67
:1029200052004FF0000341F10001FDF7D1FCA0F58A
:1029300040713F4A914252D955E0FEF7BFFD1FE07A
:10294000F369FFCFFFF4FF11000C00580044025858
:102950000044004000480040004C0040005000404F
:1029600000780040007C004000140140001001404D
:102970006846FDF70FFF02E06846FDF78FFF0198FC
:1029800078B3626A294931F81210B0FBF1F061683E
:102990004A0802EB4000B0FBF1F04FF6F071014045
:1029A00021D0C0F34200084319E0FEF787FD07E09D
:1029B0006846FDF7EFFE02E06846FDF76FFF0198FD
:1029C00078B1626A194931F81210B0FBF1F0616810
:1029D00000EB5100B0FBF1F080B2102803D3216866
:1029E000C860002100E0012100204FF00112C4E97D
:1029F0001A2020670846FEBDDCF8000080060A4861
:102A0000C0D5DCF80010C1F3C101C840BAE7DCF85A
:102A1000000080060448D5D5DCF80010C1F3C101E0
:102A2000C840CFE700093D000090D003602F0008A8
:102A3000FFFC0F002DE9F843DDF82090984616467C
:102A40000F460446016809F10105C8693840C01BFA
:102A5000B0FA80F04009B04225D1002DF5D0FDF745
:102A6000CDFD2168B9F1000F0A681FD0A0EB080066
:102A700048451BD8500744BFC8695FEA0050E4D5F9
:102A80004FF400600862086820F4D070086088681D
:102A900020F0010088602020C4F88000C4F8840081
:102AA00004F188000EE00020BDE8F88322F4D07025
:102AB0000860886820F0010088602020C4F8800049
:102AC00004F18400002184F87C102021016003209F
:102AD000BDE8F883FEE7000010B500F00F03064CD8
:102AE0002344044AB0F1FF3FC8BF8318080118709F
:102AF00010BD00BF00E400E014ED00E0BCB5094DDE
:102B000004468DF807000DF10701284601224FF415
:102B10007A73FFF799F82868C1690906FCD5204641
:102B2000BCBD00BF7400002484B0FDF775FDFFF745
:102B300023FCFFF7F1F8FFF757F9FFF789F9A148F0
:102B4000DFF8889200F5806100F500600191009047
:102B50009C484FF400419C4A14469047019DC9F897
:102B6000040028468021A047C9F8080028464FF4F1
:102B70000071A047009DC9F80C0028464FF4805111
:102B8000A047C9F8100028464FF40061A047C9F8D3
:102B90001400411ED9E901E5D9E9037645EA0E089A
:102BA000B1FA81F187F0010B741E48EA0B02B4FA06
:102BB00084F4B2FA82F24FEA541C5209490902EA3B
:102BC0000C02AEF101030A40B3FA83F3C9F82420E2
:102BD00047EA050242EA06045B09B4FA84F4B2FA51
:102BE00082F2640952091C401A4003940C40C9F84F
:102BF00020406C1EB4FA84F402EA0C0264090A4014
:102C000003EA040A46EA0704B4FA84F4BEF1000FAA
:102C10004FEA541404EA0A04029404EA0104C9F8CD
:102C20001C40C9F8182008BF012D04D1012F08BF8E
:102C3000012E00F0A180002286F00103C9F82820AF
:102C40008EF001022A4342EA0B021A4380F001038C
:102C50001A43B2FA82F24FEA521B48EA070386F09F
:102C6000010243EA06081A43B8FA88F4B2FA82F27B
:102C7000640952090C400A40012EC9E90BB2C9F897
:102C8000344004D1012D08BF57EA0E0213D00022B0
:102C9000C9F838207A1EB2FA82F252090AEA02030F
:102CA000B6FA86F2520903EA0205B0FA80F2520936
:102CB00002EA050E0AE07A1EC9F83810B2FA82F26A
:102CC000002552094FF0000E0AEA0203DDE902472F
:102CD00040EA0802B0FA80F0400903EA0C033C4ED7
:102CE000044007401840B2FA82F20D40C9E90FE0F3
:102CF000306852091940C9E91154C9E91374C9E986
:102D0000152118B1FFF718FB00203060D9F800003A
:102D100005281DDB2FA000F091F8012040F2DC51C6
:102D20004FF4FA622D4B1C469847022040F2DC51CA
:102D30004FF4FA62A047032040F2DC514FF4FA62EC
:102D4000A047042040F2DC514FF4FA62A047FFE6AE
:102D500009F118030ECB1143194302D0FDF744FBD0
:102D60002CE009F124053ECD1143194321432943A9
:102D700007D0FFF743FA21E0C9F828104FF0000B05
:102D80006BE709F13C053ECD11431943214329432B
:102D900002D0FFF763FA11E0D9F8581011B1FFF72C
:102DA000A9FB0BE0D9F854100029D7D00130C9F89D
:102DB0000000FDF719FB6420FDF736FB0120FDF74D
:102DC00033FBC5E600040258CD05000818000024B6
:102DD00014000024456E642100000000BD1E0008A0
:102DE00070B50A2A0A4624D120B1B0F1FF3F06DDB2
:102DF0000A4609E030200A4602F8010B19E02D23AB
:102E00000A4602F8013B4042002542F210730A24B0
:102E10007BB190FBF3F6354307D006F1300506FB96
:102E2000130002F8015B012500E00025B3FBF4F379
:102E3000EEE700201070084670BD00000FB4054B8F
:102E400010B503A9044A029800F017F810BC5DF809
:102E500014FB0000FD2A00080000002402E008C85E
:102E6000121F08C1002AFAD170477047002001E004
:102E700001C1121F002AFBD170472DE9F84F994676
:102E8000924688460546002706E025280AD0514686
:102E90004A4690476D1C7F1C28780028F5D138469B
:102EA000BDE8F88F002315F8011F18462E2915D10B
:102EB00015F8011F04232A290DD06FF02F0229785D
:102EC000A1F13004092C09D800EB800002EB40008E
:102ED00008446D1CF3E758F8040B6D1C2A78002A8F
:102EE000DDD0632A07D0732A0FD0104651464A46D8
:102EF00090477F1C2AE018F8042B8DF80020002151
:102F00008DF801106E46012103E058F8046B4FF074
:102F1000FF315A074FF0000401D409E0641C8442D9
:102F20000BDA8C42FADB325D002AF7D105E0641C33
:102F30008C42FCDB305D0028F9D1274404E016F810
:102F4000010B51464A469047641EF8D26D1CA3E718
:102F5000000000000102030401020304060708093F
:102F6000010002000400060008000A000C00100026
:102F70002000400080000001010101030701000062
:102F80000804020408010101A82F00080000002421
:102F9000180000005C2E0008C02F00081800002454
:102FA000780500006C2E0008000000000100000001
:102FB000100000000090D0030090D003010000003A
:040000050800029954
:00000001FF
